:020000040800F2
:10000000F034002045010008814D00089D3B0008A8
:10001000C949000825230008D58100080000000018
:100020000000000000000000000000000B68000855
:100030008F28000800000000B70100088572000842
:100040005F0100085F0100085F0100085F01000810
:100050005F0100085F0100085F0100085F01000800
:100060005F0100085F0100085F0100085F010008F0
:100070005F0100085F0100085F0100085F010008E0
:100080005F0100085F0100085F0100085F010008D0
:100090005F0100085F0100085F010008612E000891
:1000A0005F010008157700085F010008D17500089E
:1000B0005F0100085F0100085F0100085F010008A0
:1000C0005F0100085F0100085F0100085F01000890
:1000D0005F0100085F0100085F010008D57E00088D
:1000E0005F0100085F0100085F0100085F01000870
:1000F0005F0100085F0100085F0100085F01000860
:100100005F0100085F0100085D7700085F010008DB
:100110005F0100085F0100085F0100085F0100083F
:100120005F0100085F0100085F0100085F0100082F
:10013000DFF80CD000F05AFD00480047B1A70008D6
:10014000F03400200648804706480047FEE7FEE7F7
:10015000FEE7FEE7FEE7FEE7FEE7FEE7FEE7FEE777
:10016000A572000831010008EFF3108072B67047E5
:1001700080F310887047204C204D25604FF000041C
:1001800084F309881E4C4FF0010525701D4C4FF07B
:100190008055256062B6FEE730B41A4C4FF08055AA
:1001A000256030BC704730B4164C4FF08055256048
:1001B00030BC704700BF72B6EFF3098028B1203819
:1001C00080E8F00F10490968086000B50F488047C3
:1001D0005DF804EB0E480F490A7802700A480E4990
:1001E0000A680260106890E8F00F203080F30988F8
:1001F0004EF0040E62B6704720ED00E00000FFFFF5
:100200002B03002004ED00E0440300208956000881
:1002100028030020290300204C0300202DE9F04191
:100220000024061B254671F1000605DA012400278B
:10023000D0EB070067EB0101161E73F1000605DA2B
:100240000027D2EB0702012567EB030300F090FBC8
:1002500086460E4617469C46AC4204D00025D0EB9D
:10026000050E65EB010624B10020D2EB000760EB20
:10027000030C704631463A466346BDE8F081000003
:100280000649074A0868504343F23902104408609F
:100290004008704701490860704700007C03002057
:1002A0006D4EC641D2B201E000F8012B491EFBD2CF
:1002B00070470022F6E710B513460A460446194671
:1002C000FFF7F0FF204610BD30B50446002003467E
:1002D00000E05B1C934203D2E05CCD5C401BF8D095
:1002E00030BDF0B480EA0102D40F4200B2EB410FFE
:1002F00002D20246084611464A0042D0C30DDDB282
:10030000C1F3C752AD1A202D35DAC1F3160141F4FD
:10031000000204B15242C5F1200602FA06F12A4158
:100320001044B3EBD05F23D0C4B1012DA0EBC35078
:1003300009DCF0BC4FF0004202EAC352DBB200F528
:10034000000000F080BB400000F1807000EBC35063
:10035000A0F1807040EAD170490009E0490841EA03
:10036000C071A0EBC35000F50000400800EBC35083
:10037000F0BC00F05FBB6142012202EB4101001BB7
:10038000F6E7F0BC704781F00041AAE780F000403A
:10039000A7E780EA010210B502F00043400022D036
:1003A0004A001FD0010E01EB1261C0F35600C2F3E8
:1003B000560240F4000042F40002A0FB02200004B8
:1003C0007F39140400D0401C50EA124001D4400090
:1003D000491EC2B20C0604EBD010401C4008802A13
:1003E00002D003E0002010BD20F00100002900DA57
:1003F0000020184310BD30B480EA010202F000452D
:1004000030F0004221F0004013D090B1C30DD40D64
:10041000C2F31601C0F31600E41A41F4000140F4DF
:1004200000027D34914201D3641C00E04900002C9D
:1004300002DA30BC002070474FF4000000239142E4
:1004400001D3891A034340084FEA4101F7D151B162
:10045000914202D14FF0004105E002D24FF001017C
:1004600001E06FF0010103EBC450284430BC00F000
:10047000E1BA420005D0C0F3C7525242914201DCBA
:100480000020704700EBC15070472DE9FE4F8046B9
:1004900081EA0300C00F0C46009021F0004123F0D8
:1004A0000045B8EB0200A94105D2404621469046DE
:1004B0001C460B46024623F00040104347D0270D50
:1004C000C7F30A00C3F30A510290401A0190402872
:1004D0006BDAC3F3130040F4801B0098924620B1FE
:1004E0000023D2EB030A63EB0B0B01985946C0F1D2
:1004F0004002504600F06DFA06460D4650465946F9
:10050000019A00F085FA10EB08006141002487EAA7
:10051000115284EAE7731A4340D0009A62B3019AF9
:10052000012A4FEA075215DC001B61EB02014FF074
:10053000004202EA0752CDE90042001C41F5801159
:1005400032462B4600F0BCFA03B0BDE8F08F4046BF
:100550002146F9E7001B61EB0201001C41F5801305
:1005600000185B412018A2F5001747EB030140EA91
:10057000D570B6196D4111E06D084FEA360645EAAF
:10058000C0754FEA0752001B61EB0201001C41F5E8
:10059000801149084FEA30000019514132462B467C
:1005A00003B0BDE8F04F00F07CBA00980122400093
:1005B0000023D0EB020263EBE073009821464FEA80
:1005C000E074B8EB000061EB0401E9E783F000435D
:1005D0005BE781F0004158E72DE9FE4F81EA030413
:1005E00004F0004421F0004100944FF0000B23F090
:1005F000004350EA01045ED052EA03045BD0C3F327
:100600000A54C1F30A552C44A4F2F3340194A0FB1C
:100610000254C1F3130141F48011C3F3130343F4F3
:10062000801301FB024400FB034E840A970A44EA4C
:10063000815447EA8357A4FB076802958D0A05FB9E
:1006400007854FEA932C04FB0C542705029D4FEAC3
:10065000065847EA1637B5EB08056EEB070C870E10
:10066000920E47EA811742EA8312A7FB0201B6EB1A
:100670000B0164EB00042B0D43EA0C335E1844EBD2
:100680001C50DA465146E7FB0201C5F313044FEA5A
:100690000B3343EA14534FEA0432019C43EA060346
:1006A000A4F10C040294009CCDE900B400F008FA17
:1006B00003B0BDE8F08F00200146F9E72DE9F04DC9
:1006C00081EA030404F0004B21F0004514464FF08A
:1006D000000A23F0004150EA050220D054EA01024A
:1006E0001DD0C5F30A570246C5F31303C1F3130027
:1006F000C1F30A5640F4801543F48013A7EB0608B3
:10070000101BD64608F2FD3873EB050002D308F142
:10071000010801E092185B41B8F1000F03DA0020F4
:100720000146BDE8F08D00204FF480110646844656
:100730000EE0171B73EB050705D3121B63EB0503D4
:1007400006434CEA010C49084FEA300092185B411D
:1007500050EA0107EDD152EA030012D082EA040008
:1007600083EA0501084305D0101BAB4106D20122E4
:10077000002306E000224FF0004302E06FF0010288
:1007800053101AEB06004CEB085110EB0A0041EB3A
:100790000B01BDE8F04D00F084B9C10F80EAE070B4
:1007A0000844CA079623002100F04DB99623002281
:1007B000114600F048B90EB5C10F80EAE070084458
:1007C000CA07002140F233438DE80E000A460B466B
:1007D00000F076F903B000BD0EB540F2334102914E
:1007E0000021CDE900110A460B4600F069F903B07B
:1007F00000BD00F0004220F00040C10DC0F3160023
:1008000040F400007F2901DA00207047962903DCBC
:10081000C1F19601C84001E096398840002AF4D021
:100820004042704720F00040C10DC0F3160040F474
:1008300000007F2901DA00207047962903DCC1F10E
:100840009601C840704796398840704770B5C1F32B
:100850000A5201F000450024C1F3130140F2FF33B6
:1008600041F480119A4201DA002070BD40F2334316
:100870009A42A2F2334203DC524200F0B9F800E09F
:1008800090402C43F1D0404270BDC1F30A5210B5E4
:10089000C1F3130140F2FF3341F480119A4201DAAF
:1008A000002010BD40F233439A42A2F2334203DCEF
:1008B000524200F09DF810BD904010BD00F0004283
:1008C00030F000400AD0C10D01F56071C0F3160090
:1008D00042EA0151C2084007114370470020014617
:1008E000704701F0004330B421F0004150EA0102AA
:1008F00006D00A0DA2F56072C1F31301002A02DCD2
:1009000030BC00207047440F44EAC104C100E01825
:1009100030BC00EBC25000F08DB80000002801DBB5
:10092000C0F10040002901DBC1F100418142704764
:10093000002801DBC0F10040002901DBC1F10041CA
:100940008842704730B50B46014600202022012422
:1009500009E021FA02F59D4205D303FA02F5491B8D
:1009600004FA02F52844151EA2F10102F1DC30BDA3
:100970002DE9F05F0546002092469B4688460646D4
:10098000814640241BE0284641464746224600F067
:100990002FF853465A46C01A914110D311461846B3
:1009A000224600F016F82D1A67EB01084F46224642
:1009B0000120002100F00DF817EB00094E41201E28
:1009C000A4F10104DFDC484631462A464346BDE82F
:1009D000F09F202A04DB203A00FA02F10020704741
:1009E0009140C2F1200320FA03F31943904070476D
:1009F000202A04DB203A21FA02F00021704721FA74
:100A000002F3D040C2F120029140084319467047DA
:100A1000202A06DBCB17203A41FA02F043EAE073C2
:100A200006E041FA02F3D040C2F1200291400843AF
:100A3000194670470029A8BF7047401C490008BFED
:100A400020F00100704710B4B0FA80FC00FA0CF0FE
:100A500050EA010404BF10BC704749B1CCF1200436
:100A600021FA04F411FA0CF118BF012121430843C3
:100A7000A3EB0C01CB1D4FEA00614FEA102042BFEF
:100A8000002010BC704700EBC35010440029A4BFE5
:100A900010BC7047401C490008BF20F0010010BC8A
:100AA000704710B5141E73F1000408DA401C41F1C0
:100AB000000192185B411A4301D120F0010010BDE2
:100AC0002DE9F04D92469B4611B1B1FA81F202E058
:100AD000B0FA80F220329046FFF77BFF04460F46C3
:100AE00040EA0A0041EA0B0153465A46084313D034
:100AF000114653EA010019D0C8F140025046FFF7F1
:100B000077FF05460E46504659464246FFF761FFBD
:100B1000084305D0012004E020463946BDE8F08DA9
:100B20000020054346EAE0762C4337430A986305E4
:100B3000E40AA0EB08000022FD0A44EA47540A3008
:100B400002D500200146E9E7010510196941DDE9F8
:100B5000084500196941BDE8F04DA2E770B521F0E4
:100B6000004303430CD0C1F30A550024D5EB040520
:100B700064EB0403D617AD1AB34102DB0020014633
:100B800070BD201841EB025170BDC1F30A52C1F390
:100B9000130140F2FF3341F480119A4202DA00203F
:100BA0000146704740F233439A42A2F2334202DCDC
:100BB0005242FFF71DBFFFF70CBF000030B5041E07
:100BC00071F1000404DB4FF00044404264EB01018A
:100BD000141E73F1000405DB1C464FF00043524223
:100BE00063EB0403994208BF904230BD064C074DA9
:100BF00006E0E06840F0010394E8070098471034ED
:100C0000AC42F6D3FFF798FAE0CD000800CE00081A
:100C10002DE9F04D00231A461B1A8A4103DB002000
:100C20000146BDE8F08DC1F30A52C1F3130141F44E
:100C300080154FF0000BD10702D100186D41521EF4
:100C40000027044640F2FF11384601EB620A3E4697
:100C50008046024600204FF48011FFF7C9FEC219FA
:100C60007141BB1846EB0100B4EB030C75EB000CB3
:100C700004D3E41A65EB000517460E46241908F163
:100C800001006D4180463428E3DDF91946EB06008A
:100C9000091BA84103D24FF0FF32134601E00022A6
:100CA00013461BEB070046EB0A51BDE8F04DFFF77A
:100CB000F8BE70B58C1810F8015B15F0070301D170
:100CC00010F8013B2A1106D110F8012B03E010F8AF
:100CD000016B01F8016B5B1EF9D12B0705D40023D2
:100CE000521E0DD401F8013BFAE710F8013BCB1A74
:100CF000921C03E013F8015B01F8015B521EF9D569
:100D0000A142D8D3002070BD002904D0816841F0F1
:100D1000010181607047816821F0010181607047A5
:100D2000002904D0816841F4807181607047816836
:100D300021F480718160704710B5154988420AD14D
:100D400044150121204605F0D1FA2046BDE81040A7
:100D5000002105F0CBBA0F4988420AD104150121C0
:100D6000204605F0C3FA2046BDE81040002105F0FA
:100D7000BDBA094988420AD10121CC03204605F0B9
:100D8000B5FA2046BDE81040002105F0AFBA10BD0D
:100D90000024014000280140003C014001460020A1
:100DA0008968490700D501207047C06C80B2704740
:100DB0000246002012680A4200D001207047014616
:100DC00000208968090700D50120704710B54268E6
:100DD0000E4B1A400C790B6842EA0422134343601D
:100DE00082680B4B1A40D1E9024323434C7942EA13
:100DF000440213438360C26A22F47002097C491ED4
:100E0000C9B242EA0151C16210BD0000FFFEF0FF0D
:100E1000FDF7F1FF70B5072609290AD9C568A1F1C8
:100E20000A0404EB4404A640B543A3401D43C56037
:100E300007E0056901EB4104A640B543A3401D430B
:100E400005611F23072A09D2446B521E02EB82025E
:100E500093409C4391400C43446370BD0D2A09D2DA
:100E6000046BD21F02EB820293409C4391400C43DF
:100E7000046370BDC46A0D3A02EB820293409C4346
:100E800091400C43C46270BD816841F008018160EB
:100E90007047002904D0816841F4A0018160704747
:100EA000816821F4A00181607047816841F00401EC
:100EB000816070472DE9F047DFF824C1DCF81C00A1
:100EC00001280AD002280ED06146DCF80C200969FE
:100ED000501C4FF003080BD00BE00520CCF820008D
:100EE0000120BDE8F0870620CCF820000120F8E7BB
:100EF00019B10427012A03D003E0CCF820806CE06C
:100F000011B102261AB104E0CCF8207065E0012985
:100F100003D04FF001091AB104E0CCF820605CE086
:100F2000481C0AD02E48B2F1FF3F83684068C3F1E5
:100F30000005C0F1000403D004E0CCF820904CE0A0
:100F4000012902D0012A0ED010E0002800DA204644
:100F5000002B00DA2B46984202DDCCF820803CE0E2
:100F6000CCF8206039E0B1F1FF3F03D0B2F1FF3F90
:100F70000ED010E0002800DA2046002B00DA2B46C5
:100F8000984202DDCCF8207027E0CCF8209024E0D5
:100F9000B1F1FF3F02D0012A0ED00FE0002800DAA5
:100FA0002046002B00DA2B46984202DDCCF8208048
:100FB00013E0CCF8209010E0012901D0002090E748
:100FC000002800DA2046002B00DA2B46984202DD8A
:100FD000CCF8207001E0CCF82060012081E700000F
:100FE000B001002010B500F079FD002000F0E9FD0F
:100FF00050B1002000F019FE40B10021062000F0A1
:101000009EFE28B1012010BD002010BD002010BDA3
:10101000002010BD10B5002000F08BFD30B1002184
:10102000012000F08CFE18B1012010BD002010BD81
:10103000002010BD7FB50121082005F049F980246A
:10104000ADF8004048208DF8030003208DF8020021
:101050006946124802F02EFA0121084605F038F9D7
:101060000721012002F012FA029400248DF80C40AE
:101070000C208DF80D0001258DF80E5002A801F00E
:101080001FFF17208DF804008DF805408DF80640ED
:101090008DF8075001A803F075FE7FBD000C0140DC
:1010A00010B5044600F01AFDFF21832000F0B3FEC6
:1010B00070B189218E2000F0AEFE58B1032000F0FF
:1010C000E6FD48B164B1012000F07BFD30B10BE0DA
:1010D000002010BD002010BD002010BD002010BD5C
:1010E000002000F06EFDB8B1012000F09EFDA8B117
:1010F00000F042F8A0B10121032000F020FE88B1E9
:101100000121022000F01BFE70B10121062000F039
:1011100016FE58B1012010BD002010BD002010BDEA
:10112000002010BD002010BD002010BD002010BD0B
:1011300010B50446012000F0E3FC28B144B10120C1
:1011400000F0F7FC10B107E0002010BD002010BD3A
:10115000002000F0EEFC48B100F00EF840B1012193
:10116000084600F0ECFD28B1012010BD002010BDA4
:10117000002010BD002010BD10B50121002000F09E
:10118000DEFD08B1012010BD002010BD10B50446E1
:10119000022000F00CFE48B1002000F092FD38B1B2
:1011A00054B1012000F01DFE20B109E0002010BD67
:1011B000002010BD002010BD002000F012FE48B13C
:1011C000FFF7DAFF40B10121022000F0B8FD28B19D
:1011D000012010BD002010BD002010BD002010BD5A
:1011E00008B56946802000F09BFB10B19DF8000017
:1011F00008BDFF2008BD000070B50B4C0025256020
:101200000A48016821F0F0010160016841F03001F5
:1012100001606560022008F03DF901202060022095
:1012200008F038F9256070BDA0812142040C01400E
:1012300038B50121082005F04BF84FF44070ADF8A7
:10124000000010208DF8030003208DF80200054CEB
:101250006946204602F02EF90621204602F0B5F933
:1012600038BD0000000C014070B50B4C0025256016
:101270000A48016821F0F0010160016841F0300185
:10128000016001266660022008F004F92660022051
:1012900008F000F9256070BDA0812142040C0140D6
:1012A0002DE9F047814600241648016821F0F0013D
:1012B0000160016841F0800101600025124E0027A5
:1012C0004FF00108C6F8A071022008F0E3F8C6F854
:1012D000A0816006040ED6F8240108B1641CE4B2B3
:1012E000012008F0D7F86D1CEDB2082DEAD3B9F152
:1012F000000F04D0FFF780FF2046BDE8F087FFF71E
:10130000B3FFF9E7040C0140008021422DE9F041D0
:1013100005461648016821F0F0010160016841F0BE
:1013200030010160124E4FF00008C6F8A081002481
:101330000127280602D5C6F8A47101E0C6F8A481E9
:101340006806050E022008F0A5F8C6F8A071022074
:1013500008F0A0F8C6F8A081022008F09BF8641CF1
:10136000E4B2082CE5D3BDE8F0810000040C014094
:101370000080214270B50B48016821F0F001016046
:10138000016841F030010160074C0120606020607D
:10139000042008F07FF800256560042008F07AF842
:1013A000256070BD040C0140A081214210B50C489D
:1013B000016821F0F0010160016841F03001016035
:1013C000084C002020606060042008F063F80120D1
:1013D00020606060BDE81040042008F05BB80000A9
:1013E000040C0140A081214270B50024124801681C
:1013F00021F0F0010160016841F0800101600F4DB2
:101400000126C5F8A461012008F044F8C5F8A061E0
:10141000012008F03FF807E0641CE4B2FA2C03D97D
:10142000FFF7C4FF012070BDD5F824010028F3D1D7
:10143000C5F8A00170BD0000040C014000802142ED
:1014400008B500200090FFF7F3FE6946922000F0F7
:1014500067FA38B19DF80000AB2805D09C2803D06E
:10146000002008BD002008BD0021072000F067FC17
:1014700000287DD0DB21812000F0CDFC002878D031
:10148000F621832000F0C7FC002873D087218E202E
:1014900000F0C1FC00286ED000219D2000F0BBFCB4
:1014A00000286BD000219E2000F0B5FC002867D0FA
:1014B00060218D2000F0AFFC00287BD0002000F0E0
:1014C00000FC002879D0022000F071FC002876D0C2
:1014D000012000F015FB002873D0002000F05DFC17
:1014E000002870D0322000F04EFC00286DD04FF65E
:1014F000FF7000F012FC002868D0002000F0FBFB19
:1015000000286ED011218C2000F085FC00286AD0C4
:101510000121902000F07FFC70B300219F2000F09B
:101520007AFC50B3282000F01EFB40B31E2000F0D0
:1015300024FB30B34021A22000F06DFCD8B3022080
:1015400000F025FBC0B3002000F055FBB0B3012034
:1015500000F084FBA0B30021A42000F05CFC88B361
:101560000021A52000F057FC70B30021A72009E05E
:101570002DE02EE02FE030E04EE04FE02FE04FE096
:1015800033E04FE000F047FC60B30021A92000F0F9
:1015900042FC48B3C921A62000F03DFC78B30021ED
:1015A000AA2000F038FC58B3002000F00AFB40B33A
:1015B000012008BD1BE037E038E01AE038E01AE00F
:1015C00038E01AE038E01DE038E01DE01EE00020C1
:1015D000EFE70020EDE70020EBE70020E9E700203F
:1015E000E7E715E02CE015E02CE00020E1E7002023
:1015F000DFE70020DDE70020DBE70020D9E723E07C
:1016000024E025E00020D4E70020D2E70020D0E746
:101610000020CEE70020CCE70020CAE70020C8E782
:101620000020C6E70020C4E70020C2E70020C0E792
:101630000020BEE70020BCE70020BAE70020B8E7A2
:101640000020B6E70020B4E70020B2E70020B0E7B2
:101650000020AEE708B56946AF2000F061F938B167
:101660009DF8000000F00100009018B1012008BDB5
:10167000012008BD002008BD2DE9F04F0023002403
:101680000025002600279C4698469946DFF8B4A11D
:101690009AF88100042802D80020BDE8F08F411E8E
:1016A0001F294BD800211FE01AF801200A2A1AD955
:1016B0000AEB010292F820B0BBF10A0F13D992F89D
:1016C00040B0BBF10A0F0ED992F860B0BBF10A0F1F
:1016D00009D91AF80130514491F8204092F840504D
:1016E00092F8606002E0491C8842DDDC0BB304B371
:1016F000FDB1F6B1401E002820DB1AF800100A29BF
:1017000019D90AEB000191F820200A2A13D991F87F
:1017100040200A2A0FD991F860200A2A0BD91AF81A
:101720000070504490F820C091F8408091F860908B
:1017300004E00020B1E7401E0028DEDA181B642117
:101740004843191990FBF1F0A91B64225143AA19CF
:1017500091FBF2F1A7EB0C0264235A4307EB0C0355
:1017600092FBF3F2A8EB09036424634308EB09043A
:1017700093FBF4F3101A591A334B5A6802445A6017
:101780009C680C449C60012600256FF0310C4FF0E2
:10179000FF37322A01DBDE6004E0624501DCDF60F6
:1017A00000E0DD60322C01DB1E6104E0644501DCF9
:1017B0001F6100E01D61D3E903421443224A5269CC
:1017C00002F1010203D0002826DB044625E00028B0
:1017D00001DB044600E04442142C31DA002901DB2D
:1017E0000C4600E04C42142C2ADA50EA01040FD0D7
:1017F0009A69521C9A615A690A2A21DB9A69022A5B
:101800001EDB3CB110B109B10220D861012044E7D0
:101810005A61F0E7DE61F9E74442142C10DA00293E
:1018200001DB0C4600E04C42142C09DA084300D1DD
:101830005A6158690A2803DBDD601D615D609D60A7
:1018400000202AE732070020B001002038B5044606
:10185000002020806946942000F062F878B19DF85D
:10186000000020806946952000F05AF848B1208891
:101870009DF8001000EB01202080012038BD0020E1
:1018800038BD002038BD38B50446002020806946A8
:101890009A2000F045F878B19DF800002080694654
:1018A0009B2000F03DF848B120889DF8001000EB27
:1018B00001202080012038BD002038BD002038BD27
:1018C0002DE9F04180460D4616460024FFF752FDF3
:1018D0007220FFF71BFDFFF787FD671E10B138462A
:1018E000BDE8F0814046FFF711FDFFF77DFD08B12F
:1018F0003846F5E7FFF73EFD7320FFF707FDFFF7DA
:1019000073FD38B13846EBE70120FFF7C9FC2855D5
:10191000641CE4B2B442F7D3FFF748FD2046DFE78A
:1019200070B505460C46FFF725FD7220FFF7EEFC6B
:10193000FFF75AFD08B1002070BD2846FFF7E6FC0E
:10194000FFF752FD08B1002070BDFFF713FD7320B3
:10195000FFF7DCFCFFF748FD08B1002070BD012057
:10196000FFF79EFC2070FFF721FD012070BD0000F5
:10197000F0B5A3B000252295FFF76CFE30B1FFF75C
:101980002FFC10F0410F01D02F4C47E0002023B076
:10199000F0BDFF20FBE79DF80400C00748D022A956
:1019A000AE20FFF7BDFF68B19DF88800B0B382009C
:1019B00002A9FC20FFF784FF411C05D004282DDB81
:1019C000002120E0FF20E2E70020E0E702AA94F8EF
:1019D0008060535CA3551C4B0A4414F8807F20336D
:1019E0005678FE54277820339678FE54D378164ADA
:1019F00026786032B3542278521C22706278521CCE
:101A00006270803C091D8142E0DBFFF735FE08B1C2
:101A1000FFF750FA84F8805084F881501E2007F0B8
:101A20000FFD01A9AF20FFF77BFF0028B3D1B0E77E
:101A30001E2007F005FDFFF73DFA0448026A00F09A
:101A40004DF81046A3E7000032070020B001002047
:101A500038B504460020208069469820FFF760FFD3
:101A600078B19DF80000208069469920FFF758FF63
:101A700048B120889DF8001000EB01202080012053
:101A800038BD002038BD002038BD10B500210170E0
:101A900001469C20FFF744FF08B1012010BD002043
:101AA00010BD38B504460020208069469620FFF717
:101AB00037FF78B19DF80000208069469720FFF736
:101AC0002FFF48B120889DF8001000EB01202080F6
:101AD000012038BD002038BD002038BD0649002057
:101AE00008704870054948608860C86008614861AE
:101AF0008861C86108627047B2070020B001002009
:101B000038B5044669468F20FFF70AFF68B104F034
:101B100003009DF8001021F00301014300918F2084
:101B200000F079F918B1012038BD002038BD00203F
:101B300038BD38B5044669468020FFF7F1FE70B124
:101B400004F0010000019DF8001021F01001014394
:101B50000091802000F05FF918B1012038BD00200D
:101B600038BD002038BD10B50146A02000F053F963
:101B700008B1012010BD002010BD10B50146A12004
:101B800000F049F908B1012010BD002010BD38B5A2
:101B900004466946A320FFF7C3FE70B104F00300BA
:101BA00040019DF8001021F0600101430091A32045
:101BB00000F031F918B1012038BD002038BD0020F7
:101BC00038BD38B504466946AB20FFF7A9FE70B1B1
:101BD00004F0010040009DF8001021F002010143D3
:101BE0000091AB2000F017F918B1012038BD00209A
:101BF00038BD002038BD38B504466946A320FFF73C
:101C00008FFE70B104F00300C0009DF8001021F0B9
:101C1000180101430091A32000F0FDF818B1012044
:101C200038BD002038BD002038BD38B504466946AF
:101C3000AB20FFF775FE68B104F001009DF80010BD
:101C400021F0010101430091AB2000F0E4F818B14C
:101C5000012038BD002038BD002038BD38B504460D
:101C60006946A320FFF75CFE68B104F007009DF809
:101C7000001001F0F80101430091A32000F0CBF81F
:101C800018B1012038BD002038BD002038BD38B55E
:101C9000044669469020FFF743FE70B104F003004C
:101CA00000019DF8001021F03001014300919020C7
:101CB00000F0B1F818B1012038BD002038BD002077
:101CC00038BD38B5044669468F20FFF729FE70B14C
:101CD00004F0030080019DF8001021F0C0010143D1
:101CE00000918F2000F097F818B1012038BD002036
:101CF00038BD002038BD10B5C1B2040A862000F0FE
:101D00008AF830B12146872000F085F818B101200B
:101D100010BD002010BD002010BD10B5C1B2040AD6
:101D2000842000F078F830B12146852000F073F867
:101D300018B1012010BD002010BD002010BD70B5ED
:101D400004460D46FFF74CFA0146FF2909D005F07D
:101D50000102062C09D80120A04022B10843C1B2DB
:101D600009E0002070BD814305E0072C03D10AB1D2
:101D70007F2100E00021802000F04DF808B1012013
:101D800070BD002070BD10B501468B2000F043F8F7
:101D900008B1012010BD002010BD10B501468920FA
:101DA00000F039F808B1012010BD002010BD38B591
:101DB000044669468F20FFF7B3FD70B104F00300BD
:101DC00080009DF8001021F00C01014300918F204C
:101DD00000F021F818B1012038BD002038BD0020E6
:101DE00038BD38B5044669468020FFF799FD70B1CB
:101DF00004F0010040019DF8001021F02001014392
:101E00000091802000F007F818B1012038BD0020B3
:101E100038BD002038BD70B505460C46FFF7AAFA5C
:101E20007220FFF773FAFFF7DFFA08B1002070BDE8
:101E30002846FFF76BFAFFF7D7FA08B1002070BD0C
:101E40002046FFF763FAFFF7CFFA08B1002070BD14
:101E5000FFF7ACFA012070BD10B5174800780128D3
:101E60000CD0022814D003281BD0FFF7BBF80020A9
:101E7000FFF78CF9BDE81040FFF7CCB80020FFF762
:101E800085F9FFF7C7F8BDE810400120FFF708B952
:101E9000FFF7A8F8FFF7BEF8BDE810400120FFF7F4
:101EA00075B9FFF79FF80020FFF770F9BDE8104003
:101EB0000120FFF73DB90000B607002010B5154C12
:101EC0002178012913D002291DD0032920D1201DFA
:101ED000FFF7BCFCA01DFFF7E4FD04F10800FFF7CD
:101EE000B7FD04F10A00BDE81040FFF7CCBC0A4C76
:101EF000206800280CD008F0D9FA00202060BDE846
:101F0000104000F07DBAA01CBDE81040FFF7BDBD39
:101F100010BD0000B6070020D401002070B586B0C7
:101F200001214FF4047004F0D3F94FF4004004F0A1
:101F3000B7F90220ADF8000000248DF803401D4ED3
:101F40006946304601F0B6FA0125ADF800508DF82B
:101F500003406946304601F0ADFA174E3046FEF7B1
:101F6000EBFE01948DF808408DF809404FF4602095
:101F7000039004948DF8145001A93046FEF726FF13
:101F800000213046FEF7CCFE01213046FEF7BCFEB4
:101F90003046FEF779FF3046FEF711FF0028FAD1F0
:101FA0003046FEF782FF3046FEF7F8FE0028FAD1F1
:101FB00006B070BD001001400024014070B5154806
:101FC00000680024144E154D692803D22C7001209E
:101FD0006870F070F078012803D002280ED0F470F9
:101FE00070BD00226FF01301104604F0FDFE287A48
:101FF0000028F5D00220F0702C7270BD002211462E
:102000002D2004F0F1FE287A0028F6D00320F0708D
:102010002C7270BDE0020020340200201407002062
:102020002DE9F0473F48006800243F4F3F4E4FF0F6
:1020300001085A2804D23C7087F8018086F8048091
:102040003B483C4932790068096840EA010522BBF7
:10205000F289521C92B2F2816423B2FBF3FC03FBBF
:102060001C22C2B90844FEF798FB3349FEF7C3F9B6
:102070003249FEF78EF98146F069FEF797FB494633
:10208000FEF72FF9FEF7CEFBF061316A884201D8E6
:1020900086F80480306275B1B4813079012814D09B
:1020A000022830D0347187F800802820B8712620AB
:1020B0007871BDE8F087B089401C80B2B081642897
:1020C000EBD9B48186F80480E7E7F4613462F481E7
:1020D0004FF002086DB1B48100226FF01301104679
:1020E00004F082FE387A0028E3D086F804803C723F
:1020F000DFE7B089401C80B2B0816428ECD9B4819C
:1021000086F80480E8E7F4613462F481B481002247
:1021100011461E2004F068FE387A0028C9D03471B8
:102120003C72C6E7E00200201407002034020020C1
:102130007C0100208001002000009C450A574F438D
:1021400010B5081AFEF729FB0849FEF754F90849AB
:10215000FEF71FF90749FEF74EF90749FEF719F98F
:10216000064C2168FEF7BDF8206010BD00201E451A
:10217000000002420000AE420000B44340000020D4
:10218000084A002907D00123012908D0022908D1D3
:10219000537005F061BD002111705170F9E71370A3
:1021A000F7E770471407002070B502460E461C483A
:1021B00000211C4C0378002B03D143780BB9437BDF
:1021C0008BB183780BB9C37813B12170002070BD37
:1021D000007910B12170002070BD207820B9012055
:1021E0002070A26400E021702078B0B11046A16C8C
:1021F000FEF7C9F8054660653146206DFEF7C9F85F
:1022000006462946E06CFEF7C4F83146FEF769F849
:10221000A065BDE87040FEF7ECBA002070BD00007C
:1022200014070020040100200348002101704170C0
:102230008170C170017170471407002070B51A4C8D
:10224000207801281ED0022821D003282AD117483F
:102250000078032826D1164D2878032822D1A88893
:10226000642805D80121134801F0A6F9012813D0EC
:10227000608810B1A888642814D9BDE87040002097
:1022800002F0ACB86078BDE8704002F0A7B8BDE8D5
:102290007040002002F0A2B8607802F09FF84FF47E
:1022A000FA70608070BD0000D6020020600100203E
:1022B000B60700200014014010B501210B4801F0C1
:1022C0007BF900220A4901280ED0086844F25063C5
:1022D000984208D90A600749012008700649087029
:1022E00006490F20087010BD0A6010BD001401409F
:1022F000A801002035020020E5010020E4010020B3
:1023000008B50121202003F0E3FF0120ADF8000013
:1023100048208DF803006946014801F0CBF808BD5C
:1023200000140140FEE7000010B5074C2279002A96
:1023300001D1FFF705FF2079012804D103490020CE
:1023400008600349086010BD140700204000002009
:1023500094010020044940F6B830C8804880034901
:102360000880091D088070473A0000403C04004086
:1023700007490020087048708870C8704872C87299
:1023800008730449086004490860044908807047DC
:1023900014070020380000203C00002036000020F8
:1023A0000E4A1078002817D00D4900200870487098
:1023B0008870C87008710B4908600B4908600B49A8
:1023C00008800B4B012119700A4B0F2119700A4923
:1023D00008600A490860107070470000D8010020AA
:1023E00014070020380000203C00002036000020A8
:1023F000E5010020E4010020A4010020A00100204C
:1024000008B56946AB20FFF78BFAC8B19DF800000C
:1024100040F004010091AB20FFF7FDFC90B10220D9
:1024200007F00EF89DF8000020F004010091AB20A9
:10243000FFF7F1FC40B1022007F002F8012008BDCF
:10244000002008BD002008BD002008BD10B5184AB6
:102450001078184C002803D1A0782178884203D046
:10246000FFF786FF002010702078A07005F040FB79
:10247000A07900281AD12078082817D2DFE800F0C8
:102480001616080C16041612BDE81040FFF796BD8C
:10249000BDE8104001F09CB807480068BDE8104056
:1024A00000F0F0BEBDE81040FFF7BABD10BD00005F
:1024B000B101002034020020E002002004488078AE
:1024C000012801D0102801D104F03CBA7047000067
:1024D000E21100202DE9F041334CE08921890025EB
:1024E000884201D3E58125702078304E90BB30487A
:1024F000E1890223304A475C2E490120112F30D256
:10250000DFE807F02F090C1014181C2024292F2FA6
:102510002F2F2F2F2D000870137022E00870032139
:1025200011701EE00870042111701AE00870052176
:10253000117016E008700621117012E00870072172
:1025400011700EE00870082111700AE0087009216E
:10255000117006E010E008700A21117001E00870A7
:1025600013701349E289C839895C71711049E28995
:102570006439895CB17120701048E18930F911200B
:10258000E189C838E38930F91110C83830F91300EF
:1025900004F02AFC307A002804D0E089401CE08155
:1025A00035722570BDE8F081C002002014070020BC
:1025B0009E1A0020E5010020E40100200E190020F1
:1025C00010B51F4B01227521682002F055F91C48F7
:1025D0000078682809D01B4801681B4A01F4E061B3
:1025E00011430160BFF3408FFEE708F055FA002861
:1025F00025D1782008F066FFE0B9782008F058F976
:10260000C0B9C82008F018FFA0B907F0C3F888B90E
:102610000B482C3007F07CFF07F0CAFA50B940F2A3
:10262000731006F077FF28B9C82007F005FA08B93B
:1026300009F026F8BDE81040012008F015BE10BDD5
:10264000CC0000200CED00E00400FA050F49012049
:1026500008700F490F2008700E49002008600E49CD
:1026600008600E4A50819081D0810D4908704870F1
:102670008870C8700871487188710A4908600A49F1
:1026800008600A490880107070470000E5010020CA
:10269000E4010020A4010020A0010020C0020020CD
:1026A00014070020380000203C00002036000020E5
:1026B00070B500240525324E32890021314809F0D9
:1026C0006BF832892F480021C83009F065F832894B
:1026D00000212D4809F060F832892B480021C830CC
:1026E00009F0FEF932890021284809F0F9F9328908
:1026F00026480021643009F0F3F9254800780838AD
:10270000C2B2244937E0485D4B195B7840EA0320A8
:102710001C4B23F81400AD1CE8B20B5C0D186D784F
:1027200043EA0523174DC83525F81430801CC0B284
:102730000B5C0D186D7843EA0523134D25F8143012
:10274000801CC0B20B5C142B01D20F230B540B5C0A
:102750000E4D643D2B55401CC0B20B5C64352B55AF
:10276000401CC0B20B5C64352B55401CC5B2641CC8
:10277000E4B2093AD2B2002AC5D1204670BD0000A9
:10278000C00200207E1700200E1900203A1A0020F7
:1027900028020020E21100200D480078022814D100
:1027A0000C488078062810D2DFE800F00F030507F8
:1027B000091000F0CBBC04F05FBBFFF78BBE0648EE
:1027C0000021017041708170C170704700F094BDAC
:1027D00060010020C0020020140700200448807817
:1027E000012801D0102801D104F0B2B970470000CF
:1027F000E211002010B503217D2000F01BFD022115
:102800007D2001F017FE02217D2003F031FF03211E
:102810007D2000F00FFD02217D2000F0E3F9022170
:10282000BDE810407D2005F099BC10B50321FA20C9
:1028300000F000FD0221FA2001F0FCFD0221FA2047
:1028400003F016FF0321FA2000F0F4FC0221FA2025
:1028500000F0C8F90221BDE81040FA2005F07EBC66
:102860000268002A03DD02F13202026003E002DAAC
:10287000A2F1320202600868002803DD00F1320094
:1028800008607047FDDAA0F13200086070477047B9
:1028900000E0401E0028FCD17047000070B52148C0
:1028A000817A0024204D232908D200F1240200F16E
:1028B00050010223243006F0E1F92CE0817A41290D
:1028C00008D2184A0223243202F13001104606F0E1
:1028D000D5F920E0817A502908D2124A0223243205
:1028E00002F13401104606F0C9F914E0807A5F283D
:1028F00008D20C4A0223243202F13801104606F0B5
:10290000BDF908E0074A0223243202F13C011046D7
:1029100006F0B4F96C700548C179002901D06C70DB
:10292000C47170BD34020020B607002014070020D7
:102930002DE9F05FDFF8E88098F80800394F0024AF
:10294000394D0126DFF8E490012804D002280FD089
:1029500003285DD11AE0324A02232432114601F1E4
:10296000080006F08BF9E87990B37C70EC714FE0C9
:102970002B49022324310A1D091D01F1080006F02C
:102980007DF9E87920B37C70EC7141E098F80A0099
:10299000DFF89CA0DFF89CB0232805D20022114666
:1029A000254804F021FA27E098F80A00412805D2CA
:1029B00000221146214804F017FA1DE098F80A0099
:1029C000502806D2002211461D4804F00DFA13E0EB
:1029D0001EE098F80A005F2805D200221146194827
:1029E00004F002FA06E0AE707C700B208AF800005A
:1029F0008BF8006088F80840287A38B17C702C7217
:102A000009208AF800008BF8006001E089F8006076
:102A100098F80900002801D189F80060BDE8F09F0E
:102A200034020020B607002014070020DA0200203C
:102A3000E4010020E501002098FEFFFFC8FBFFFF36
:102A4000F8F8FFFFF0F1FFFF70B52148817A00240C
:102A5000204D232908D200F1240200F13C01022379
:102A6000243006F00BF92CE0817A412908D2184A6B
:102A70000223243202F11C01104606F0FFF820E088
:102A8000817A502908D2124A0223243202F120010D
:102A9000104606F0F3F814E0807A5F2808D20C4A5A
:102AA0000223243202F12401104606F0E7F808E080
:102AB000074A0223243202F12801104606F0DEF80C
:102AC0006C700548C179002901D06C70C47170BD6B
:102AD00034020020B6070020140700202DE9F05F23
:102AE0003A4F787A3A4E00243A4D4FF002090128C5
:102AF00004D002280FD0032860D11AE0334A022301
:102B00002432114601F1100006F0B8F8E879A0B3BC
:102B10007470EC7152E02D49022324310A1D091D05
:102B200001F1100006F0AAF8E87930B37470EC7186
:102B300044E0B87ADFF8A0A0DFF8A0B04FF00108B9
:102B4000232806D2002211464FF4B47004F04CF949
:102B500027E0B87A412806D2002211464FF4876058
:102B600004F042F91DE0B87A502807D2002211463D
:102B70004FF4E16004F038F913E01FE0B87A5F2801
:102B800006D2002211464FF4616004F02DF907E0EF
:102B900085F8038074700B208AF800008BF80080A1
:102BA0007C72287A38B174702C7209208AF800007F
:102BB0008BF8008002E00A4880F80090787A0028BC
:102BC00002D1074880F80090BDE8F09F3402002051
:102BD000B607002014070020E4010020E5010020D2
:102BE000DA0200202DE9F047894600272AE0174C39
:102BF00001256560E5602560A560DFF85480C8F8B0
:102C000090517D2006F01CFC00266660E560256082
:102C1000A560C8F890517D2006F012FC6660E66061
:102C20002560A560C8F890617D2006F009FC66600B
:102C3000E6602660A660C8F890617D2006F000FC82
:102C40007F1CFFB24F45D2D3BDE8F08790012142EF
:102C500000002242F0B50020042100230024144D7E
:102C600001222A70134E3278D21FD2B21AE0124DCE
:102C70006F5C0D446D7847EA05252DB2401CC0B24B
:102C8000891CC9B2921ED2B2C70706D00B4F6D4243
:102C900027F813505B1CDBB204E0094F27F81450EF
:102CA000641CE4B2002AE2D100213180F0BD0000B2
:102CB000B602002028020020E21100202615002084
:102CC000521600202DE9F04152480078042870D1B6
:102CD000514E524D0024F07988B174702C706C7094
:102CE000AC70EC706C72EC722C734D4804604D4803
:102CF00004604D48048037206871A871F471B07881
:102D0000401CC0B2B0704949096850290AD22C70E1
:102D10006C70AC70EC702C71F178491CF1707179A9
:102D2000491C71710127142804D2F0780A2803D9AC
:102D3000377101E0B470F470307901280ED00228A8
:102D400019D034713079002861D1B07980B3384816
:102D500038490068096808432CD033E000226FF03E
:102D60000901104604F040F8287A0028EAD0022031
:102D700030712C72E6E770790321B0FBF1F201FBB0
:102D8000120050B100221146AA2004F02DF8287A32
:102D90000028D7D034712C72D4E7002211462D20A0
:102DA00004F022F8287A0028CCD034712C72C9E7BC
:102DB00008E02CE03089401C80B23081642801D9C1
:102DC000348137711C4970781C4A31F9101032F97E
:102DD0001000002204F008F8287A18B17078401C1E
:102DE00070702C727178B079B1EB500F0FD320B1A5
:102DF00013490B20087013480770C8210F48FDF7CE
:102E000058FAC8210C48FDF754FAB4717470BDE843
:102E1000F081000060010020B602002014070020AD
:102E2000380000203C00002036000020E002002096
:102E30007C01002080010020521600202615002071
:102E4000E4010020E501002004488078012801D039
:102E5000102801D103F0B0BE70470000E21100203D
:102E600010B5802000F01CF800280AD00549012088
:102E70000860802000F008F8BDE81040802000F0D5
:102E800009B810BDD4010020014908607047000056
:102E90001404014001490860704700001404014017
:102EA00001460020054A12680A40044B14331B688F
:102EB0000B4202D0002A00D00120704700040140DC
:102EC00030B51B4A83790168002B2AD013688B43E5
:102ED0001360111D0B680468A3430B600179114452
:102EE0000B68046823430B60114C083421680368A5
:102EF00099432160231D19680568A9431960417928
:102F0000102905D011440A68006802430A6030BDE8
:102F10002168026811432160196800680143196043
:102F200030BD0079104402688A43026030BD000061
:102F30000004014010B588B00121082003F0BAF95F
:102F40000121042003F0C4F90320ADF8040004209B
:102F50008DF8070001A91C4800F0ACFA05A804F0A0
:102F6000BDFD0020ADF814004FF6FF71ADF818104C
:102F7000ADF81A00ADF81600144C05A9204604F06F
:102F80005FFD00231A460321204604F023FC02A81B
:102F900004F08EFC0A21ADF8101002A9204604F0BE
:102FA00041FC0121204604F0F5FB01221146204698
:102FB00004F086FC0021204604F018FD0121204683
:102FC00004F0EEFB08B010BD00080140000C00400A
:102FD00010B588B00121480303F07AF901211020CF
:102FE00003F076F9C020ADF8040004208DF8070046
:102FF00001A91C4800F05EFA05A804F06FFD00204E
:10300000ADF814004FF6FF71ADF81810ADF81A00C6
:10301000ADF81600144C05A9204604F011FD00235C
:103020001A460321204604F0D5FB02A804F040FC18
:103030000A21ADF8101002A9204604F0F3FB01218B
:10304000204604F0A7FB01221146204604F038FC7C
:103050000021204604F0CAFC0121204604F0A0FB18
:1030600008B010BD001001400034014070B50546A5
:103070004FF43026304600F059F8042811D1094C9D
:10308000206940F0020020616561206940F0400045
:103090002061304600F04AF8216941F6FD72114086
:1030A000216170BD0020024004200849CA68D2078F
:1030B00001D001207047CA68520701D5022070472D
:1030C000C968C906FBD503207047000000200240F4
:1030D0000248016941F0800101617047002002400F
:1030E000F0B506460D464FF40057384600F01EF87E
:1030F00004280CD1064C206940F001002061358085
:10310000384600F013F82169BA1E11402161F0BD64
:103110000020024003480249416003494160704772
:103120002301674500200240AB89EFCD00B503467F
:10313000FFF7BAFF02E0FFF7B7FF5B1E012801D1DE
:10314000002BF8D1002B00D1052000BD2DE9F04166
:10315000314E708900240A2801D3748134702F48BD
:103160000168012731B92E490F702E490C7041F6C4
:10317000641101602C4800682C4D5A2804D22C7030
:103180006C70AC70EC70F770F078012808D00228F1
:1031900013D0F470F07800283BD13078C0B121E032
:1031A00000226FF03101104603F01EFE287A00283D
:1031B000F0D00220F0702C72ECE700221146AA2019
:1031C00003F012FE287A0028E4D0F4702C72E1E7B4
:1031D00017487189405C6871154871890A30405CF4
:1031E000A871377012487189143830F9112071892B
:1031F0001438738930F91110143830F9130003F0C2
:10320000F3FD287A002804D07089401C70812C724C
:103210003470BDE8F0810000C0020020A001002051
:10322000E5010020E4010020E00200201407002056
:10323000D8CB00082DE9F04106460F46002518E0DE
:103240000E4C01226260E2602260A260DFF83080F2
:10325000C8F89021B0B206F0F3F800226260E26094
:103260002260A260C8F89021B0B206F0E9F86D1CA7
:10327000EDB2BD42E4D3BDE8F081000090012142EF
:103280000000224210B514490A78002A23D14A7856
:10329000002A20D1114A01239278F02A00D94B73D9
:1032A00000246E2801D24B730CE0A0F16F034F2B6A
:1032B00001D24C7306E0A0F1BF03B3F59A7F01D8A9
:1032C00002234B734FF4FA73984201D9F02A01D3C9
:1032D000984200D94C7310BD14070020B607002097
:1032E0000449002802D002200870704700200870AE
:1032F00070470000B60700202DE9F05F5F4C208A80
:10330000012700254FF0320B002805D16571A77108
:10331000A582E571A4F812B003F06AF8208AB0F52E
:10332000967F04D2208A401C2082BDE8F09FA18AAB
:103330002046491C8CB284828279DFF844A1514E28
:10334000DFF844814FF003094FF07E51062AECD29A
:10335000DFE802F003041832408DE6E707464078C4
:10336000FDF73AFA00225346FDF78FF8FDF7B9FA58
:103370003060322CD9D10220B871BD82F879401C5E
:10338000F871D2E780464078FDF726FA00225346CE
:10339000FDF71FF9FDF7A5FA3060322CC5D188F88A
:1033A0000670A8F8145098F807000328BDD988F8CB
:1033B000075088F80690B8E73160418A8C42B4D152
:1033C000042106468171B58203F012F8707188F805
:1033D00005B0AAE70446407906282AD2DFE800F0C3
:1033E000030910161D23002211463C2003F0FCFCAB
:1033F0001FE0002211466FF03B0003F0F5FC18E0DF
:10340000002211465A2003F0EFFC12E00022114680
:103410006FF0590003F0E8FC0BE000221146782021
:1034200003F0E2FC05E0002211466FF0770003F0A4
:10343000DBFC98F808000028A3D088F80850052085
:10344000A071A58202F0D4FF0146B0FBF9F009FBA0
:10345000101131B1012907D0022992D16420608274
:1034600063E71420608260E7A4F812B05DE7316082
:10347000418A8C4285D18771858256E7C00200203F
:103480000000F03F080100201407002010B58A0753
:10349000120F0F23934021F00304054921448C6847
:1034A0009C438C608B68904003438B6010BD000090
:1034B000000001402DE9F0410022CC7804F00F0318
:1034C000E40601D58C7823430C784FF00F0714F0F5
:1034D000FF0F4FF0010C1CD005680CFA02F40E88A7
:1034E0002640A64211D1960007FA06F825EA0805FB
:1034F00003FA06F848EA0505CE78282E02D0482EB1
:1035000002D002E0446100E00461521C082AE4D3C6
:1035100005600A88FF2A1ED94568002202F10806C4
:103520000CFA06F40E882640A64210D1960007FA3F
:1035300006F825EA080503FA06F848EA0505CE78F4
:10354000282E00D14461CE78482E00D10461521C4F
:10355000082AE3D34560BDE8F0810000F0B5154CC2
:10356000002801DAE36900E06368C0F30346420D16
:10357000120185B2C0F301579540032F07D0C20254
:103580000CD50322B240934343F0706209E023F06C
:103590007062636823F07063636002E0AB4343F0E2
:1035A000706201B12A43002801DAE261F0BD626075
:1035B000F0BD0000000001400246002092680A426F
:1035C00000D00120704741617047016170470000E1
:1035D0002DE9F0472B4B1878012850D193F801C002
:1035E000012605272848DFF8A480294A29492A4CC2
:1035F0000025BCF1070F40D2DFE80CF03F12200B92
:10360000042F3700217809B10421017088F8046083
:1036100034E0217809B10321017088F804502DE0CD
:10362000237843B1067010788872087A032802D292
:10363000087A401C0872FFF77BF91FE023784BB132
:103640000223037010788872487A032802D2487ADD
:10365000401C4872FFF742FA10E0237813B107705C
:1036600010788872FFF7F0F908E0237813B107703B
:1036700010788872FFF712F900E05D702570BDE8E0
:10368000F0870000B6070020DA02002014070020AF
:103690009C01002034020020B201002004490028CF
:1036A00002D00120087070470020087070470000A9
:1036B000B607002010B50B4C014607230122204617
:1036C000FDF7A8FB01212046FDF7E3FB0221204680
:1036D000FDF76EFB0028F9D02046BDE81040FDF74D
:1036E00064BB0000002401402DE9FE4F0746DFF8CF
:1036F000A8B1012F60D04421D02000F0F6FE04468E
:103700004321D02000F0F1FE04EB002000B2FDF7D1
:1037100044F800904621D02000F0E7FE0446452101
:10372000D02000F0E2FE04EB002000B2FDF735F8F7
:1037300004464821D02000F0D8FE05464721D0207D
:1037400000F0D3FE05EB002000B2FDF726F882461C
:103750003C21D02000F0C9FE05463B21D02000F0DE
:10376000C4FE05EB002000B2FDF717F801903E21E2
:10377000D02000F0BAFE05463D21D02000F0B5FE75
:1037800005EB002000B2FDF708F802904021D020A0
:1037900000F0ABFE05463F21D02000F0A6FE05EB71
:1037A000002000B2FCF7F9FF804684F00046CBF819
:1037B0003060022F1CD03FE002F036FE3748006830
:1037C000CBF82C00364CB4F90200FCF7E6FFCBF83E
:1037D0003000B4F90400FCF7E0FFCBF834003148C6
:1037E000B0F90400FCF7D9FFCBF83800BDE8FE8F34
:1037F0003046FDF763F84FF066322B4BFCF75EFF67
:10380000FDF76FF881464046FDF758F804460D462F
:103810000198FDF753F822462B4605F0B3FC002231
:10382000224BFCF7D9FE224A224BFCF747FFFDF75B
:1038300058F8494600F02CFA032F03D1314602987C
:1038400004F0CAFC1C480068CBF82C00CBF834A06C
:10385000CBF8388019490098FCF7CDFD0646404664
:10386000FDF72CF804460D460298FDF727F822468E
:103870002B4605F087FC00220C4BFCF7ADFE0C4AF2
:103880000C4BFCF71BFFFDF72CF803B03146BDE8ED
:10389000F04F00F0B5BA000060010020E000002009
:1038A000EC000020F2000020666630400080664098
:1038B000F1D4C853FB210940600000203333834119
:1038C000F0B55748007901287AD1564B564D574EDE
:1038D0001A78574F0021D2B9BA68AA4201DD587050
:1038E00002E0B24200D998705A780AB99C7814B1B3
:1038F000DC78641CDC70DC784CB1502C04D232B122
:103900009A7822B1187002E0D970597099701A79BA
:10391000D2B93A68AA4201DD587102E0B24200D938
:1039200098715A790AB99C7914B1DC79641CDC71FC
:10393000DC794CB1502C04D232B19A7922B1187191
:1039400002E0D971597199711C7A3A4AE4B93A4D39
:10395000946BAC4201DD587203E014F1FF4F00D3C9
:1039600098725C7A0CB99D7A15B1DD7A6D1CDD72A6
:10397000DD7A4DB1502D04D234B19C7A24B1187245
:1039800002E0D972597299721C7BECB92B4D546BC1
:10399000AC4201DD587303E0294DAC4200D9987365
:1039A0005C7B0CB99D7B15B1DD7B6D1CDD73DD7B14
:1039B00055B1502D05D23CB19C7B2CB1187303E05E
:1039C0002CE0D973597399731C78012C03D1947826
:1039D000641C947019701C791CB1D478641CD47068
:1039E00019711C7A1CB11479641C147119721C7B36
:1039F0001CB15479641C547119739378502B08D8F6
:103A0000D378502B05D81379502B02D85379642BD7
:103A100004D95171D170117191709071F0BD000095
:103A200014070020220700200000F0410000F0C130
:103A3000F4060020600100200050C3460000FA4454
:103A40000000FAC40E4A9079002818D00D490020D1
:103A5000087108720870C87248728872C87148711B
:103A60008871C87048708870C87348738873087309
:103A7000907105490120087004490D2008707047B5
:103A80006001002022070020E5010020E401002061
:103A900070B50B20FFF70EFE40F6E441484340F6B8
:103AA000FF71B0FBF1F0FCF797FE4FF06632144B5C
:103AB000FCF792FDFCF7E9FE124D68802978491C5D
:103AC000C9B22970104C24F811000A2915D12046DA
:103AD00003F08AFB6088A18822890844E1881144A8
:103AE000084461890844A1890844E1890844218A7D
:103AF0000844C008688000202870688870BD0000F5
:103B000066660640040300208420002070B50A2069
:103B1000FFF7D0FD40F6E441484340F6FF71B0FBAB
:103B2000F1F0FCF759FE144A144BFCF755FDFCF775
:103B3000ACFE134DA8806978491CC9B26970114C5C
:103B400024F811000A2915D1204603F04DFB6088A6
:103B5000A18822890844E188114408446189084405
:103B6000A1890844E1890844218A0844C008A88042
:103B700000206870A88870BDE3A59BC420B01340E6
:103B800004030020982000200323024A0021024859
:103B900001F002BCC0090020E58C0008FEE700002F
:103BA00010B5FDF74DFC04461CB1FDF743FA204665
:103BB00010BD05480168054A01F4E0611143016048
:103BC000BFF3408FFEE700000CED00E00400FA05B3
:103BD00008B50121402002F07BFB4FF47050ADF896
:103BE000000048208DF8030069461048FFF762FC8A
:103BF0000121084602F06CFB0121042002F068FB61
:103C000001210B48FFF7AAFC4FF40040ADF800007B
:103C100010208DF8030003208DF802006946054846
:103C2000FFF748FC04490120086008BD0018014066
:103C30000002300000080140BC0121421048002170
:103C40000180104A4260104A82604FF07C52C2608C
:103C50000E4A0261012202758161C1610162416205
:103C60008162C162016341638163C1630164416434
:103C700081644FF07E52C264016541658265704780
:103C8000980600206F12833AA69B443B0AD7A33BB9
:103C90002DE9F34F89B0584C0A98216A0891FCF736
:103CA00072FB61690791FCF774FBA169FCF719FBD2
:103CB000074604F14405A068D5F804804146FCF7A6
:103CC00062FBD5F808B05946FCF75DFB4B4908602C
:103CD000D5F80C9089F000464E608E60D4F80CA0A8
:103CE000C1F80CA00799FCF754FB2968FCF7F9FA16
:103CF000069030460799FCF74CFB06464146FCF718
:103D0000F0FA059030465946FCF7EBFA80465046EB
:103D10000799FCF73EFB4946FCF7E3FA8146394632
:103D20000998FCF730FB824660622078FCF73EFD84
:103D300004900699FCF72DFB0646A06241460498C4
:103D4000FCF727FBE062039031460498FCF721FB67
:103D50002169FCF7C6FA8346206359463046FCF7D2
:103D60004AFB6063029059460398FCF744FBA0634A
:103D70000190E663DDE90401FCF70BFB8346206458
:103D800031460298FCF705FB0699FCF7FFFA28601C
:103D900059460298FCF7FDFA0599FCF7F7FA6860B6
:103DA00031460198FCF7F5FA4146FCF7EFFAA860B6
:103DB00059460198FCF7EDFA4946FCF7E7FAE86046
:103DC00051460298FCF7E5FA3946FCF78AFA0546AF
:103DD000A06151460198FCF7DCFA0899FCF781FADA
:103DE000206201460A98FCF7CEFAE06103486C3085
:103DF00005600BB0BDE8F08F480000208806002069
:103E00002DE9F34F89B0664CA069089001460A98E5
:103E1000FCF7B9FA21690791FCF7BBFA04F15C06DB
:103E2000B168FCF75EFA0690D4F8508060684146AD
:103E3000FCF7A9FAD4F854904946FCF7A4FAE063D9
:103E4000D4F858A08AF0004525646564D4F808B019
:103E5000C4F848B00799FCF79CFAE16CFCF741FA0A
:103E6000074628460799FCF794FA05464146FCF7B1
:103E700038FA804628464946FCF733FA81465846C8
:103E80000799FCF786FA5146FCF72BFA8246069909
:103E90000998FCF778FA0590207DFCF787FC3946F5
:103EA0000490FCF776FA0546206249460498FCF730
:103EB00070FA6062039029460498FCF76AFAE16898
:103EC000FCF70FFA8346A06259462846FCF793FA9E
:103ED000E062029059460398FCF78DFA2063019046
:103EE000656341460498FCF754FA8346A06329466B
:103EF0000298FCF74EFA3946FCF748FAE064594656
:103F00000298FCF746FA4146FCF740FA206529463C
:103F10000198FCF73EFA4946FCF738FA60655946C5
:103F20000198FCF736FA5146FCF730FAA06505997E
:103F30000298FCF72EFA0699FCF7D3F90746059983
:103F40000198FCF726FA0899FCF7CBF905462946B3
:103F50000A98FCF718FA0799FCF71BFA3946FCF7A0
:103F6000C0F9074639460998FCF70DFA8046E0612A
:103F700041460298FCF70DFA3946FCF7B2F9B060F9
:103F800041460198FCF705FA2946FCF7AAF9A06119
:103F900001460A98FCF7F7F970600BB0BDE8F08FA6
:103FA000980600202DE9FC5FDFF8BC836A460A21F1
:103FB000D8F80C0001F022F801900198EB49EC4F81
:103FC000DFF8B0A3EC4E0025DFF8B09301244FF0EA
:103FD000020B092820D2DFE800F0BB05203BBBBB69
:103FE00049A7B20098F8000048B198F802000428E8
:103FF00003D2401C88F8020001E088F802403878BB
:10400000022809D199F80000052805D1087805286B
:1040100002D20878401C08709AE098F8000050B16D
:1040200098F80200012803D9401E88F8020002E037
:10403000042088F802003878022836D199F8000068
:10404000052832D1087880B30878401E08707FE0D8
:1040500098F8000080F0010088F8000010B188F89E
:10406000024075E088F80250357071E0397806201A
:10407000012906D03978022926D0397803293ED083
:1040800066E0307098F80300022803D0012808D0B9
:1040900060B10EE0BA4880F800B00120FFF7FEFAE8
:1040A00007E0B7490320087003E047E0B449072060
:1040B000087098F80300022803D2401C88F8030017
:1040C00046E088F8035043E03070FEF7BFFA98F8F6
:1040D000040020B1012807D002280AD038E089F86E
:1040E000004088F8044033E089F800B088F804B054
:1040F0002EE0052089F8000088F8045028E0307090
:1041000098F8050040B103208AF8000032208AF8B0
:10411000010088F805501BE08AF8004032208AF838
:10412000010088F8054013E03878032810D19AF888
:10413000010064280CD2401C8AF8010008E038789D
:10414000032805D19AF8010010B1401E8AF8010039
:1041500098F8011098F80200814203D0C8F808507E
:1041600088490C7088F8010098F80000864A78B1F8
:10417000D8F80800401CC8F808001471322809D982
:10418000C8F8085088F8005088F80250357001E0EF
:10419000C8F8085098F800107C4899B198F80210B7
:1041A000012975D0022974D0032973D0042907D1BD
:1041B000397000F5D4700460456084600A20307066
:1041C000BDE8FC9F72490978F9B1B8F80610491C9E
:1041D00089B2A8F80610052979D00A2906D300F576
:1041E000D470046044608460A8F80650019869495E
:1041F000694A01286CD002286BD004286AD00528AF
:10420000DED1042008701470DAE764490978B9B186
:10421000B8F80610491C89B2A8F80610052909D07B
:104220000A29E3D300F5D470046044608460A8F8E0
:104230000650DBE700F5D470046044608560D5E784
:104240005749097811B95749097829B100F5D4704F
:10425000046044608460C9E73978032944D00DDCE8
:1042600001293BD00229C1D100F5D470056044601A
:10427000856099F80000012813D014E004290AD0C1
:10428000F029B3D100F5D470056045608560ADE7D5
:1042900041E04FE05DE000F5D4700460456084606B
:1042A000A4E7107920B199F80000022803D004E0B7
:1042B0000B2030709AE7107968B199F80000052852
:1042C00094D11079002891D10D2030708EE711E043
:1042D00016E018E01BE00C20307087E700F5D47082
:1042E00005604460846081E700F5D4700460456037
:1042F00085607BE700F5D47004604560846075E7F5
:104300000C7014705CE781F800B0147058E703205B
:104310000870147054E73C7000F5D4700560446078
:10432000846007203070164880F800B00120FFF745
:10433000B5F945E70321397000F5D4700460456094
:104340008560082030708AF8001032208AF8010059
:1043500036E787F800B000F5D470056044608560EA
:10436000092030702CE70000F0020020C10200207C
:1043700060010020D6020020DA020020C2020020E4
:1043800034020020D8010020140700200000214240
:104390000C0300203A0200203B0200200D03002005
:1043A000350200200E03002010B5002000F006FEAC
:1043B000074CE0602021074800F0B4FE2061054A68
:1043C0000223121FBDE810400021034800F0E4BFA3
:1043D000F002002004200020E9B8000807490A780C
:1043E0000749002A02D00020088070476428FCD8C2
:1043F00000EBC000800008807047000035020020FC
:104400003C080040044901204860C860086088609A
:104410000249C1F8900170479001214200002242F8
:104420000823024A0021024800F0B6BF001D002008
:10443000A5A600082DE9F04789464FF0000837E0AF
:104440001D4C01256560E5602560A5601B4F3D6042
:104450007D2004F0F5FF00266660E5602560A5601C
:104460003D607D2004F0ECFF6660E6602560A5609D
:104470003D607D2004F0E4FF6660E6602660A56094
:104480003D607D2004F0DCFF6660E6602660A6608B
:104490003D607D2004F0D4FF6660E6602660A66083
:1044A0003E607D2004F0CCFF08F1010808F0FF0811
:1044B000C845C5D3BDE8F087900121429001224252
:1044C00010B540F68C22046853429C4200DA036027
:1044D0000468944200DD02600868984200DA0B60CC
:1044E0000868904200DD0A6010BD30B504460D46F4
:1044F00000F0CCF8204600F09DF800F00FF92846B7
:1045000000F098F800F00AF900F0C0F8641CE0B27E
:1045100000F090F800F002F9002000F059F802468F
:1045200000F0E0F8104630BD00B50B4900220A60EB
:104530000A48036823F470430360036843F440535C
:1045400003604A600120FEF7A3F901200860FEF72E
:104550009FF90A6000BD0000A8812142040C0140BF
:1045600038B50121082001F0B3FE4FF44064ADF8E6
:10457000004010208DF8030003208DF80200054D47
:1045800069462846FEF796FF21462846FFF71DF8A4
:1045900038BD0000000C014000B50B4900220A6044
:1045A0000A48036823F470430360036843F44053EC
:1045B000036001234B600120FEF76AF90B600120C4
:1045C000FEF766F90A6000BDA8812142040C014093
:1045D00070B5064600241548016821F47041016059
:1045E000016841F40041016000210023104A0125C7
:1045F000C2F8A8310220FEF74BF9C2F8A8516006B4
:10460000040ED2F82C0108B1641CE4B20220FEF7BB
:104610003FF9491CC9B20829EAD316B1FFF784FF54
:1046200001E0FFF7B9FF204670BD0000040C014017
:104630000080214230B502461248016821F47041E1
:104640000160016841F4405101600F4B0024C3F840
:10465000A84100210125D009C3F8AC015006020E83
:104660000120FEF715F9C3F8A8510120FEF710F953
:10467000C3F8A8410120FEF70BF9491CC9B208296B
:10468000E9D330BD040C01400080214200B513483D
:10469000016821F470410160016841F440510160FA
:1046A0000F490120C1F8AC01D1F82C21002A0BD010
:1046B000C1F8A801FEF7ECF80022C1F8AC21D1F84E
:1046C0002C0118B1002000BD002000BD0120FEF724
:1046D000DFF8C1F8A821012000BD0000040C014052
:1046E0000080214200B50B48016821F4704101604F
:1046F000016841F4405101600749002008604860AA
:104700000120FEF7C5F80120086048605DF804EB61
:10471000FEF7BEB8040C0140A881214200B500217B
:104720001448026822F470420260026842F40042B7
:104730000260114A0123C2F8AC310120FEF7A8F84B
:10474000C2F8A8310120FEF7A3F80AE0491CC9B25B
:10475000322903D9FFF7C6FF002000BD0120FEF774
:1047600097F8D2F82C010028F0D1C2F8A801012056
:1047700000BD0000040C01400080214210B5144629
:10478000FFF7B3FE2070012010BD2DE9F84105466A
:104790000E46174698466A4631462846FFF7EEFF12
:1047A0000124BC40B8F1000F04D09DF8000044EA99
:1047B000000202E09DF80020A243D2B200923146EE
:1047C000284600F031F8BDE8F8812DE9F8410646A9
:1047D000DDF81C800F4614461D466A4639463046B1
:1047E000FFF7CCFFF0B1611CFF20C4F1080200FA12
:1047F00001F12A44521ED0400143C8B2C5F108015C
:1048000008FA01F808F0FF03C4F10701CB409DF856
:10481000002002401A4300923946304600F004F866
:10482000BDE8F8810020FBE707B502AB012200F0EC
:1048300001F80EBD2DE9F04180460F4616461D4693
:104840000024FFF723FF4046FFF7F4FEFFF766FF63
:104850003846FFF7EFFEFFF761FF06E0285DFFF740
:10486000E9FEFFF75BFF641CE4B2B442F6D3FFF746
:1048700039FF0120BDE8F081F0B506460F46144629
:104880001D46FFF703FFB0B17006000EFFF7D2FE22
:10489000FFF744FF88B13846FFF7CCFEFFF73EFF35
:1048A000FFF7F4FE012000EB4600C0B2FFF7C2FEA6
:1048B000FFF734FF0EE00120F0BDFFF713FF0120EA
:1048C000F0BD012C0CD00120FFF782FE28706D1C7A
:1048D000641EE4B2002CF4D1FFF704FF0020F0BD09
:1048E0000020FFF775FE2870F1E7F0B504460F468B
:1048F00016461D46FFF7CAFE68B16006000EFFF7B8
:1049000099FEFFF70BFF40B13846FFF793FEFFF724
:1049100005FF00240CE00120F0BDFFF7E3FE0120BD
:10492000F0BD285DFFF786FEFFF7F8FE30B1641C8E
:10493000B442F6DBFFF7D6FE0020F0BDFFF7D2FE53
:104940000020F0BD10B5022000F011F8032000F0A7
:1049500020F8002000F014F8002000F02FF80020CC
:1049600000F026F8BDE81040002000F01BB808B5A4
:104970000323009002226B21D020FFF726FF08BD01
:1049800008B50223009004221C21D020FFF71DFF50
:1049900008BD08B50223009004221B21D020FFF798
:1049A00014FF08BD034601223721D020FFF7EDBEDA
:1049B000034605226A21D020FFF7E7BE0346062200
:1049C0006B21D020FFF7E1BEFEE700002DE9F04F9C
:1049D00089B006460F460121084601F06BFC012113
:1049E000042001F075FC0C20ADF820004FF01809F0
:1049F0008DF8239003258DF8225008A94C48FEF726
:104A000059FDADF81860ADF814700024ADF81A40E7
:104A1000ADF816404FF0804B05A9584603F010F84A
:104A20004FF0600AADF804A04FF00108ADF8068021
:104A3000ADF80A40ADF80C4001A9584602F050FF0D
:104A400001A9584602F094FF0121584602F0B4FE35
:104A50000821584602F086FF0821584602F0BCFFA4
:104A60000121584602F08AFE0121584602F098FEC4
:104A70000121022001F01EFC0121082001F028FC88
:104A8000ADF820508DF823908DF8225008A92948C0
:104A9000FEF710FDADF81860ADF81470ADF81A40CF
:104AA000ADF81640244E05A9304602F0C9FFADF816
:104AB00004A0ADF80680ADF80A40ADF80C4001A99D
:104AC000304602F00DFF01A9304602F051FF0121EE
:104AD000304602F071FE0821304602F043FF082103
:104AE000304602F079FF0121304602F047FE0121F5
:104AF000304602F055FE0121402001F0E9FBE801BB
:104B0000ADF8200010208DF823008DF822500B4CBA
:104B100008A92046FEF7CEFC80212046FEF755FD71
:104B2000A1152046FEF751FD09B0BDE8F08F000049
:104B300000080140000C0140000400400018014042
:104B400038B50121042001F0C3FBF020ADF80000CE
:104B500010248DF8034003258DF8025069460D4856
:104B6000FEF7A8FC0121102001F0B2FBADF80040D7
:104B70008DF803408DF8025069460748FEF79AFC0D
:104B8000064901204860064AC2F89001C8600860E2
:104B9000886038BD000801400010014090012142AA
:104BA0000000224205488078012803D0102803D154
:104BB00002F022B801F052BD70470000E21100205F
:104BC0002DE9F047044600270126204D002C01DD89
:104BD0002E706F7001DA2F706E7002D12E73BDE8E7
:104BE000F0871B481B49006809680844FBF7D5FD9E
:104BF0001949FBF700FC1949FBF7CBFBDFF8608094
:104C00008146D8F80C00FBF7C8FD4946FBF769FB65
:104C1000FBF7EFFDC8F80C00002C09DDD8F80C00FC
:104C2000A04205DB2E73C8F80C702F70FDF792FBC5
:104C3000002CD4DAD8F80C00A042D0DC2E73C8F8CF
:104C40000C706F70BDE8F047FDF784BB14070020BF
:104C50007C01002080010020000084450A574F435A
:104C60003000002010B5444C6078002872D04348D2
:104C7000007800287ED12078102879D2DFE800F073
:104C8000080F161D242B323940474E555C636B725A
:104C9000394804220021801C03F078F868E0364887
:104CA00004220021801D03F071F861E032480422E3
:104CB00000210A3003F06AF85AE02F48042200214C
:104CC0000E3003F063F853E02B4804220021123029
:104CD00003F05CF84CE0284804220021163003F071
:104CE00055F845E02448042200211A3003F04EF81C
:104CF0003EE02148042200211E3003F047F837E04F
:104D00001D4804220021223003F040F830E01A4808
:104D100004220021263003F039F829E01648042245
:104D200000212A3003F032F822E013480422002147
:104D30002E3003F02BF81BE00F4804220021323004
:104D400003F024F814E00C4804220021363003F06C
:104D50001DF80DE00EE00848042200213A3003F06F
:104D600015F805E00448042200213E3003F00EF857
:104D70000020607010BD0000E40100200E03002040
:104D80007047000070B50F23C27801260178002A11
:104D90001ED0144A126802F4E062C2F5E062120A00
:104DA000C2F10404D3404578A54082781A402A43D2
:104DB000120101F1E02181F80024007800F01F01C8
:104DC0008E404009800000F1E020C0F8006170BD15
:104DD00001F01F0086404809800000F1E020C0F883
:104DE000806170BD0CED00E0024908430249086093
:104DF000704700000000FA050CED00E0054800785F
:104E0000032805D1044901200871044903200870D2
:104E1000704700006001002014070020B607002042
:104E200004488078012803D0102801D101F014BF74
:104E300070470000E211002030B589B00121202028
:104E400001F046FA0121084601F042FA0121080367
:104E5000FEF784FB0121042001F02CFA4FF480407E
:104E6000ADF8200018208DF8230003208DF82200D3
:104E700008A92148FEF71EFB4FF46160ADF8180049
:104E80000024ADF81440ADF81A40ADF816401B4DA3
:104E900005A9284602F0D4FD6021ADF804100121D7
:104EA000ADF80610ADF80A40ADF80C4001A928464F
:104EB00002F016FD0121284602F07EFC082128465A
:104EC00002F050FD0121284602F058FC012128463D
:104ED00002F066FC0121084601F0FAF901210420E4
:104EE00001F0F6F901210648FEF738FB05490220DA
:104EF000087009B030BD00000014014000080040F7
:104F000000023000D602002010B500F017F800F0C3
:104F1000ABFE00F0B9FE00F0C9FE00F07FFE00F02D
:104F200059FE00F055FF00F0F9FE00F01FFF00F001
:104F3000D9FCBDE8104000F007B80000014900208E
:104F40000880704720030020704700000449C8799A
:104F5000012804D18878FF2801D2401C887070474E
:104F60002403002070B5134CE079012821D1FBF710
:104F7000FBF80546A17809B1491EA170A07898B93F
:104F8000E07888B900F06CFF0B48627950F8221085
:104F9000A1622079824207D0886B401C8863E06858
:104FA000401CE060FBF7FFF82846BDE87040FBF7C7
:104FB000DFB870BD240300207426002070B50546BC
:104FC0000C480078002801D0002070BDFBF7CCF819
:104FD00009490C680CB162680A60FBF7C9F83CB17A
:104FE00001202070002020816560204600F0E8FD4F
:104FF000204670BD26030020340300202DE9F04731
:1050000006468A4614463078012804D001202070D4
:105010000020BDE8F0872C48007818B102202070ED
:105020000020F6E72948007818B10D2020700020F4
:10503000EFE7FBF799F8074675684FF0000845B1B0
:10504000C6F804803846FBF793F884F800802846B9
:10505000DFE7DFF87C90D9F8000010F8301F41F04E
:105060000201017080F8018040F804AC304600F085
:1050700083FD3846FBF77CF800F0CEFEFBF774F8B2
:105080000746D9F8000090F83110A9B1022917D0CD
:10509000314600F05FFD0A202070D9F8000080F84A
:1050A000308080F83180C0F81C80C0F820803846FD
:1050B000FBF75EF82846ACE7056A84F80080ECE769
:1050C0000E202070E9E700002603002027030020BF
:1050D0004403002070B504460E462078012801D014
:1050E000012070BDFBF740F80546A07A60B10023AF
:1050F00002223146204600F0FDFC2846FBF738F836
:1051000000F08AFE002070BD606820B12846FBF7E1
:105110002FF8142070BD66602846FBF729F80020A0
:1051200070BD00002DE9F041064688461948007818
:10513000002802D00020BDE8F081FBF715F8164FDB
:105140003D680DB169683960FBF712F805B3FBF7EC
:105150000BF812490C68ACB122680A60FBF708F83A
:10516000666006EB8800A060E6602661A4F8148003
:105170000020E0820221297028816C60284600F01E
:105180001FFD05E0396869603D60FAF7F1FF002511
:105190002846D0E7260300203403002064030020C3
:1051A00010B5094CE07901280CD1FAF7DDFFA178A0
:1051B00021B9E178FF2901D2491CE170BDE8104016
:1051C000FAF7D6BF10BD00002403002010B5104C24
:1051D000E07901281BD1FAF7C7FFE17899B1491EA0
:1051E000C9B2E17019B1BDE81040FAF7C1BFA178AA
:1051F00019B1BDE81040FAF7BBBFFAF7B9FFBDE837
:10520000104000F009BEBDE81040FAF7B1BF10BD74
:105210002403002070B505460C480078002801D012
:10522000002070BDFAF7A0FF09490C680CB1626854
:105230000A60FAF79DFF3CB1032020702581002011
:105240006060204600F0BCFC204670BD26030020B4
:10525000340300202DE9F047054689461446287896
:10526000032803D001202070BDE8F087254800788E
:1052700010B102202070F7E72348007810B10D200C
:105280002070F1E7FAF770FF06462889002730B151
:10529000401E28813046FAF76BFF2770E4E7DFF8FD
:1052A0006C80D8F8002012F8300F40F00100107028
:1052B000577042F8049C284600F05EFC3046FAF72E
:1052C00057FF00F0A9FDFAF74FFF0646D8F8000097
:1052D00090F8311089B1022911D0294600F03AFC2A
:1052E0000A202070D8F800001C3007754775076049
:1052F0003046BDE8F047FAF73BBF2770F2E70E20D3
:105300002070EFE72603002027030020440300203D
:1053100070B504462078032801D0012070BDFAF74B
:1053200023FF0546A07A60B10023012219462046DA
:1053300000F0E0FB2846FAF71BFF00F06DFD0020AF
:1053400070BD20894FF6FF71884206D2401C208133
:105350002846FAF70DFF002070BD2846FAF708FF2F
:10536000332070BD10B5094CE07900280CD100F055
:1053700077FD60792071064951F82000A062206213
:10538000BDE81040FAF7F7BE10BD0000240300206E
:1053900074260020704700002DE9FE4305460E46A6
:1053A00090461C46FAF7E0FE1A49097821B1FAF74F
:1053B000DFFE3C20BDE8FE83174F57F8241019B1DB
:1053C000FAF7D6FE2820F5E7012147F82410FAF76E
:1053D000CFFE002342463146284600F0DBF8014666
:1053E0000025009501952B462A462046029500F09F
:1053F00047FD06463EB1FAF7B7FE47F82450FAF7E4
:10540000B7FE3046D6E7054800780128F9D100F00C
:1054100003FDF6E726030020742600202B0300205E
:105420002DE9FF4F83B08246DDE91197DDE9138650
:105430008B461C46FAF798FE1D49097829B1FAF700
:1054400097FE3C2007B0BDE8F08F1A4D55F82410A8
:1054500019B1FAF78DFE2820F4E7012145F8241050
:10546000FAF786FE32463946484600F0D7FD334605
:1054700059465046059A00F08DF80146CDE900786E
:1054800002964A462046109B00F0FAFC064646B1BA
:10549000FAF76AFE002145F82410FAF769FE304653
:1054A000D0E7054800780128F9D100F0B5FCF6E70F
:1054B00026030020742600202B030020704770472D
:1054C00070B505460E46144611480078002802D0F3
:1054D0001220207070BDFAF747FEFF2D03D10D4951
:1054E000096891F832500C4951F8252043253AB10A
:1054F000012A09D0D664FAF73BFE0020207070BD67
:10550000FAF736FE257070BDFAF732FE257070BDD1
:10551000260300204403002074260020704700006A
:105520002DE9F04104460E46002030607060FAF725
:105530001BFEFF2C03D11549096891F8324014492C
:1055400051F8242052B1012A0DD0117CC9070ED088
:105550000024D7689568FAF70BFE0DE0FAF708FE0D
:105560004320BDE8F081FAF703FE4320F9E7FAF79C
:10557000FFFD4520F5E7641C01CD0028FBD0A0000D
:105580003060381B800070600020EAE74403002090
:10559000742600204FF08073136042F8040C083A20
:1055A0006FF001001060A2F130004FF01233C362BF
:1055B0004FF0033282624FF00232426252100262B6
:1055C000C1614FF0113181611101416159100161D7
:1055D000D100C1604FF0073181604FF0063141606A
:1055E0004FF0053140F80419910001607047000048
:1055F00070B50446FAF7B8FD01461F48FF2C06D0E7
:10560000006890F83200A04206D1012505E000684C
:1056100090F83240012500E00025184850F8240099
:1056200058B101280ED090F83420154C90F8356010
:10563000A35CB343A35453B10FE00846FAF798FDB7
:10564000482070BD0846FAF793FD432070BD0D4A0F
:1056500090F836401378A343137010F8302F42F0BF
:10566000080202700846FAF783FD012D01D100F00F
:10567000D3FB002070BD00004403002074260020EE
:10568000580300202A0300207047000070B504462C
:105690001248007800281FD11148007800281BD13B
:1056A000002C19D0FAF760FD0E49096891F83420F2
:1056B0000D4D91F83560AB5CB343AB542BB90B4A3D
:1056C00091F836501378AB431370CC62FAF750FD63
:1056D000BDE8704000F0A0BB70BD000026030020B4
:1056E0002703002044030020580300202A03002041
:1056F0002DE9F04100F054F8FAF736FD274D296BFB
:10570000491C2963FAF734FDE879012843D1687A06
:105710000126002748B1012809D0022809D001201C
:105720006F72002837D0EC6A31E00120F9E70020E1
:10573000F7E701206E72F4E7FAF716FDE16A19B394
:10574000491EE16201BB94F8301011F0370F06D00A
:1057500001F0C80184F8301084F8316001E084F869
:10576000317094F8301009070ED494F83610AA79E5
:105770001143A971094A94F83410343294F835C0B1
:10578000535C43EA0C0353546469FAF7F1FC94F850
:1057900032003F28D0D1BDE8F08100002403002072
:1057A00005490888401C80B20880002803D00020EA
:1057B000088000F037B87047200300202DE9F05F23
:1057C0000646DDE90AAB0C9D0F4690469946144803
:1057D0000078002804D08B2028700020BDE8F09FBE
:1057E000FFF7DEFC00F064F8044694B1012084F871
:1057F0002500A661E76184F82480C4F80490C4F809
:1058000008A0C4F820B0FFF7E1FC00202870204673
:10581000E4E7FFF7DBFC862028700020DEE70000CD
:105820002603002001480068FFF772BD74030020C2
:1058300070B505460C462878642803D0892020706E
:10584000002070BD1948007818B18B20207000200E
:1058500070BDFFF7A5FC95F8251009B300260129B6
:1058600015D0022913D0032905D0FFF7AFFC8D20F6
:105870002070002070BD284600F01CF90021284649
:1058800000F0AEF8FFF7A2FC2670012070BD0021E9
:10589000284600F0A5F8FFF799FC2670012070BD9E
:1058A000FFF794FC87202070002070BD26030020A5
:1058B0000949086800280DD0C2680A600021C1604B
:1058C000016106490A88521C0A80054A1188491E4E
:1058D0001180704700207047780300206A03002081
:1058E0006803002070B54FF42071204800F066FA7C
:1058F00040211F4800F062FA002000231B4C642561
:10590000411C0A4689B200EB800004EBC00001EBA9
:10591000810104EBC101057080F82530C16015A13B
:10592000016290B20F28EBD300EB800004EBC000C3
:10593000057080F82530C3600EA101620E48036037
:105940000E4803800E49102008800E480460012094
:10595000FFF760FC0C4908600020FFF75BFC0B4977
:105960000860BDE8704000F013B800002C2C002047
:10597000AC3000203F0000006C0300206A030020D0
:1059800068030020780300207003002074030020C7
:1059900000B587B080220B4BCDE9013200210320F6
:1059A000CDE903104FF6FD7000900B46064A0748FC
:1059B000FFF736FD06AA06A10020FFF781FD07B01C
:1059C00000BD0000AC2E0020A83000203D5A000889
:1059D00075432F4F532D494920546D72000000002C
:1059E000032280F82520134A0129126814D0816906
:1059F000B1B111444161017D01F007010E4A02EB92
:105A0000C10100230A687AB10860C26010618A8807
:105A1000521C8A8003617047C16911444161EAE701
:105A2000C16911444161E6E70860C36001228A80D0
:105A3000F0E700006C030020AC30002008B5DFF870
:105A40006880DFF868901A4E6A460021D8F8000096
:105A5000FFF700FCFFF7A4FB3068401C306000F04B
:105A6000070009EBC0000468022713E0E5686069DD
:105A7000316888420DD1204600F01CF894F82400CB
:105A800002280CD084F82570626812B12046A16803
:105A900090472C46002CE9D1FFF798FBD4E7012171
:105AA0002046FFF79DFFEFE774030020AC30002095
:105AB0006C03002010B5017D01F007010C4A02EBD8
:105AC000C10100240B68C268834203D10A602AB175
:105AD000146103E00369DA6002B11361012280F806
